{"abi":[{"type":"constructor","inputs":[],"stateMutability":"nonpayable"},{"type":"function","name":"TOKEN_A","inputs":[],"outputs":[{"name":"","type":"uint256","internalType":"uint256"}],"stateMutability":"view"},{"type":"function","name":"TOKEN_B","inputs":[],"outputs":[{"name":"","type":"uint256","internalType":"uint256"}],"stateMutability":"view"},{"type":"function","name":"TOKEN_C","inputs":[],"outputs":[{"name":"","type":"uint256","internalType":"uint256"}],"stateMutability":"view"},{"type":"function","name":"TOKEN_D","inputs":[],"outputs":[{"name":"","type":"uint256","internalType":"uint256"}],"stateMutability":"view"},{"type":"function","name":"balanceOf","inputs":[{"name":"account","type":"address","internalType":"address"},{"name":"id","type":"uint256","internalType":"uint256"}],"outputs":[{"name":"","type":"uint256","internalType":"uint256"}],"stateMutability":"view"},{"type":"function","name":"balanceOfBatch","inputs":[{"name":"accounts","type":"address[]","internalType":"address[]"},{"name":"ids","type":"uint256[]","internalType":"uint256[]"}],"outputs":[{"name":"","type":"uint256[]","internalType":"uint256[]"}],"stateMutability":"view"},{"type":"function","name":"isApprovedForAll","inputs":[{"name":"account","type":"address","internalType":"address"},{"name":"operator","type":"address","internalType":"address"}],"outputs":[{"name":"","type":"bool","internalType":"bool"}],"stateMutability":"view"},{"type":"function","name":"mint","inputs":[{"name":"to","type":"address","internalType":"address"},{"name":"id","type":"uint256","internalType":"uint256"},{"name":"amount","type":"uint256","internalType":"uint256"}],"outputs":[],"stateMutability":"nonpayable"},{"type":"function","name":"mintAll","inputs":[{"name":"to","type":"address","internalType":"address"},{"name":"amountA","type":"uint256","internalType":"uint256"},{"name":"amountB","type":"uint256","internalType":"uint256"},{"name":"amountC","type":"uint256","internalType":"uint256"},{"name":"amountD","type":"uint256","internalType":"uint256"}],"outputs":[],"stateMutability":"nonpayable"},{"type":"function","name":"mintBatch","inputs":[{"name":"to","type":"address","internalType":"address"},{"name":"ids","type":"uint256[]","internalType":"uint256[]"},{"name":"amounts","type":"uint256[]","internalType":"uint256[]"}],"outputs":[],"stateMutability":"nonpayable"},{"type":"function","name":"owner","inputs":[],"outputs":[{"name":"","type":"address","internalType":"address"}],"stateMutability":"view"},{"type":"function","name":"renounceOwnership","inputs":[],"outputs":[],"stateMutability":"nonpayable"},{"type":"function","name":"safeBatchTransferFrom","inputs":[{"name":"from","type":"address","internalType":"address"},{"name":"to","type":"address","internalType":"address"},{"name":"ids","type":"uint256[]","internalType":"uint256[]"},{"name":"values","type":"uint256[]","internalType":"uint256[]"},{"name":"data","type":"bytes","internalType":"bytes"}],"outputs":[],"stateMutability":"nonpayable"},{"type":"function","name":"safeTransferFrom","inputs":[{"name":"from","type":"address","internalType":"address"},{"name":"to","type":"address","internalType":"address"},{"name":"id","type":"uint256","internalType":"uint256"},{"name":"value","type":"uint256","internalType":"uint256"},{"name":"data","type":"bytes","internalType":"bytes"}],"outputs":[],"stateMutability":"nonpayable"},{"type":"function","name":"setApprovalForAll","inputs":[{"name":"operator","type":"address","internalType":"address"},{"name":"approved","type":"bool","internalType":"bool"}],"outputs":[],"stateMutability":"nonpayable"},{"type":"function","name":"supportsInterface","inputs":[{"name":"interfaceId","type":"bytes4","internalType":"bytes4"}],"outputs":[{"name":"","type":"bool","internalType":"bool"}],"stateMutability":"view"},{"type":"function","name":"transferOwnership","inputs":[{"name":"newOwner","type":"address","internalType":"address"}],"outputs":[],"stateMutability":"nonpayable"},{"type":"function","name":"uri","inputs":[{"name":"","type":"uint256","internalType":"uint256"}],"outputs":[{"name":"","type":"string","internalType":"string"}],"stateMutability":"view"},{"type":"event","name":"ApprovalForAll","inputs":[{"name":"account","type":"address","indexed":true,"internalType":"address"},{"name":"operator","type":"address","indexed":true,"internalType":"address"},{"name":"approved","type":"bool","indexed":false,"internalType":"bool"}],"anonymous":false},{"type":"event","name":"OwnershipTransferred","inputs":[{"name":"previousOwner","type":"address","indexed":true,"internalType":"address"},{"name":"newOwner","type":"address","indexed":true,"internalType":"address"}],"anonymous":false},{"type":"event","name":"TransferBatch","inputs":[{"name":"operator","type":"address","indexed":true,"internalType":"address"},{"name":"from","type":"address","indexed":true,"internalType":"address"},{"name":"to","type":"address","indexed":true,"internalType":"address"},{"name":"ids","type":"uint256[]","indexed":false,"internalType":"uint256[]"},{"name":"values","type":"uint256[]","indexed":false,"internalType":"uint256[]"}],"anonymous":false},{"type":"event","name":"TransferSingle","inputs":[{"name":"operator","type":"address","indexed":true,"internalType":"address"},{"name":"from","type":"address","indexed":true,"internalType":"address"},{"name":"to","type":"address","indexed":true,"internalType":"address"},{"name":"id","type":"uint256","indexed":false,"internalType":"uint256"},{"name":"value","type":"uint256","indexed":false,"internalType":"uint256"}],"anonymous":false},{"type":"event","name":"URI","inputs":[{"name":"value","type":"string","indexed":false,"internalType":"string"},{"name":"id","type":"uint256","indexed":true,"internalType":"uint256"}],"anonymous":false},{"type":"error","name":"ERC1155InsufficientBalance","inputs":[{"name":"sender","type":"address","internalType":"address"},{"name":"balance","type":"uint256","internalType":"uint256"},{"name":"needed","type":"uint256","internalType":"uint256"},{"name":"tokenId","type":"uint256","internalType":"uint256"}]},{"type":"error","name":"ERC1155InvalidApprover","inputs":[{"name":"approver","type":"address","internalType":"address"}]},{"type":"error","name":"ERC1155InvalidArrayLength","inputs":[{"name":"idsLength","type":"uint256","internalType":"uint256"},{"name":"valuesLength","type":"uint256","internalType":"uint256"}]},{"type":"error","name":"ERC1155InvalidOperator","inputs":[{"name":"operator","type":"address","internalType":"address"}]},{"type":"error","name":"ERC1155InvalidReceiver","inputs":[{"name":"receiver","type":"address","internalType":"address"}]},{"type":"error","name":"ERC1155InvalidSender","inputs":[{"name":"sender","type":"address","internalType":"address"}]},{"type":"error","name":"ERC1155MissingApprovalForAll","inputs":[{"name":"operator","type":"address","internalType":"address"},{"name":"owner","type":"address","internalType":"address"}]},{"type":"error","name":"OwnableInvalidOwner","inputs":[{"name":"owner","type":"address","internalType":"address"}]},{"type":"error","name":"OwnableUnauthorizedAccount","inputs":[{"name":"account","type":"address","internalType":"address"}]}],"bytecode":{"object":"0x608060405234801561000f575f80fd5b5060408051602081019091525f8152339061002981610066565b506001600160a01b03811661005757604051631e4fbdf760e01b81525f600482015260240160405180910390fd5b61006081610076565b50610219565b6002610072828261015f565b5050565b600380546001600160a01b038381166001600160a01b0319831681179093556040519116919082907f8be0079c531659141344cd1fd0a4f28419497f9722a3daafe3b4186f6b6457e0905f90a35050565b634e487b7160e01b5f52604160045260245ffd5b600181811c908216806100ef57607f821691505b60208210810361010d57634e487b7160e01b5f52602260045260245ffd5b50919050565b601f82111561015a57805f5260205f20601f840160051c810160208510156101385750805b601f840160051c820191505b81811015610157575f8155600101610144565b50505b505050565b81516001600160401b03811115610178576101786100c7565b61018c8161018684546100db565b84610113565b6020601f8211600181146101be575f83156101a75750848201515b5f19600385901b1c1916600184901b178455610157565b5f84815260208120601f198516915b828110156101ed57878501518255602094850194600190920191016101cd565b508482101561020a57868401515f19600387901b60f8161c191681555b50505050600190811b01905550565b61160c806102265f395ff3fe608060405234801561000f575f80fd5b5060043610610110575f3560e01c80638da5cb5b1161009e578063e985e9c51161006e578063e985e9c514610231578063f242432a1461026c578063f2fde38b1461027f578063ff709ee814610292578063ffe371891461029a575f80fd5b80638da5cb5b146101dd578063a22cb465146101f8578063a85c05fa1461020b578063d81d0a151461021e575f80fd5b80632eb2c2d6116100e45780632eb2c2d614610192578063499f712e146101a55780634e1273f4146101ad57806361e77893146101cd578063715018a6146101d5575f80fd5b8062fdd58e1461011457806301ffc9a71461013a5780630e89341c1461015d578063156e29f61461017d575b5f80fd5b610127610122366004610ecf565b6102a2565b6040519081526020015b60405180910390f35b61014d610148366004610f0c565b6102c9565b6040519015158152602001610131565b61017061016b366004610f2e565b610318565b6040516101319190610f73565b61019061018b366004610f85565b6103aa565b005b6101906101a03660046110f0565b6103c9565b610127600281565b6101c06101bb36600461119c565b6103e8565b6040516101319190611297565b610127600481565b6101906104b7565b6003546040516001600160a01b039091168152602001610131565b6101906102063660046112a9565b6104ca565b6101906102193660046112e2565b6104d9565b61019061022c366004611367565b610643565b61014d61023f3660046113e5565b6001600160a01b039182165f90815260016020908152604080832093909416825291909152205460ff1690565b61019061027a366004611416565b6106bd565b61019061028d366004611469565b6106d3565b610127600181565b610127600381565b5f818152602081815260408083206001600160a01b03861684529091529020545b92915050565b5f6001600160e01b03198216636cdb3d1360e11b14806102f957506001600160e01b031982166303a24d0760e21b145b806102c357506301ffc9a760e01b6001600160e01b03198316146102c3565b60606002805461032790611482565b80601f016020809104026020016040519081016040528092919081815260200182805461035390611482565b801561039e5780601f106103755761010080835404028352916020019161039e565b820191905f5260205f20905b81548152906001019060200180831161038157829003601f168201915b50505050509050919050565b6103c483838360405180602001604052805f815250610710565b505050565b6103d4335b86610774565b6103e185858585856107ec565b5050505050565b6060815183511461041e5781518351604051635b05999160e01b8152600481019290925260248201526044015b60405180910390fd5b5f83516001600160401b0381111561043857610438610fb5565b604051908082528060200260200182016040528015610461578160200160208202803683370190505b5090505f5b84518110156104af5760208082028601015161048a906020808402870101516102a2565b82828151811061049c5761049c6114ba565b6020908102919091010152600101610466565b509392505050565b6104bf61084c565b6104c85f610879565b565b6104d53383836108ca565b5050565b60408051600480825260a082019092525f9160208201608080368337505060408051600480825260a082019092529293505f929150602082016080803683370190505090506001825f81518110610532576105326114ba565b60200260200101818152505085815f81518110610551576105516114ba565b602002602001018181525050600282600181518110610572576105726114ba565b6020026020010181815250508481600181518110610592576105926114ba565b6020026020010181815250506003826002815181106105b3576105b36114ba565b60200260200101818152505083816002815181106105d3576105d36114ba565b6020026020010181815250506004826003815181106105f4576105f46114ba565b6020026020010181815250508281600381518110610614576106146114ba565b60200260200101818152505061063a87838360405180602001604052805f815250610987565b50505050505050565b6103e1858585808060200260200160405190810160405280939291908181526020018383602002808284375f92019190915250506040805160208089028281018201909352888252909350889250879182918501908490808284375f92018290525060408051602081019091529081529250610987915050565b6106c6336103ce565b6103e185858585856109c5565b6106db61084c565b6001600160a01b03811661070457604051631e4fbdf760e01b81525f6004820152602401610415565b61070d81610879565b50565b6001600160a01b03841661073957604051632bfa23e760e11b81525f6004820152602401610415565b6040805160018082526020820186905281830190815260608201859052608082019092529061076c5f8784848784610a45565b505050505050565b816001600160a01b0316816001600160a01b0316141580156107bb57506001600160a01b038082165f9081526001602090815260408083209386168352929052205460ff16155b156104d55760405163711bec9160e11b81526001600160a01b03808416600483015282166024820152604401610415565b6001600160a01b03841661081557604051632bfa23e760e11b81525f6004820152602401610415565b6001600160a01b03851661083d57604051626a0d4560e21b81525f6004820152602401610415565b6103e185858585856001610a45565b6003546001600160a01b031633146104c85760405163118cdaa760e01b8152336004820152602401610415565b600380546001600160a01b038381166001600160a01b0319831681179093556040519116919082907f8be0079c531659141344cd1fd0a4f28419497f9722a3daafe3b4186f6b6457e0905f90a35050565b6001600160a01b0383166108f357604051631f18c42760e11b81525f6004820152602401610415565b6001600160a01b03821661091b5760405162ced3e160e81b81525f6004820152602401610415565b6001600160a01b038381165f81815260016020908152604080832094871680845294825291829020805460ff191686151590811790915591519182527f17307eab39ab6107e8899845ad3d59bd9653f200f220920489ca2b5937696c31910160405180910390a3505050565b6001600160a01b0384166109b057604051632bfa23e760e11b81525f6004820152602401610415565b6109bf5f858585856001610a45565b50505050565b6001600160a01b0384166109ee57604051632bfa23e760e11b81525f6004820152602401610415565b6001600160a01b038516610a1657604051626a0d4560e21b81525f6004820152602401610415565b6040805160018082526020820186905281830190815260608201859052608082019092529061063a87878484875f5b610a5186868686610a9d565b6001600160a01b0385161561076c57338115610a7a57610a75818888888888610cac565b61063a565b60208581015190850151610a92838a8a85858a610dcd565b505050505050505050565b8051825114610acc5781518151604051635b05999160e01b815260048101929092526024820152604401610415565b335f5b8351811015610bce576020818102858101820151908501909101516001600160a01b03881615610b80575f828152602081815260408083206001600160a01b038c16845290915290205481811015610b5a576040516303dee4c560e01b81526001600160a01b038a166004820152602481018290526044810183905260648101849052608401610415565b5f838152602081815260408083206001600160a01b038d16845290915290209082900390555b6001600160a01b03871615610bc4575f828152602081815260408083206001600160a01b038b16845290915281208054839290610bbe9084906114ce565b90915550505b5050600101610acf565b508251600103610c4e5760208301515f906020840151909150856001600160a01b0316876001600160a01b0316846001600160a01b03167fc3d58168c5ae7397731d063d5bbf3d657854427343f4c083240f7aacaa2d0f628585604051610c3f929190918252602082015260400190565b60405180910390a450506103e1565b836001600160a01b0316856001600160a01b0316826001600160a01b03167f4a39dc06d4c0dbc64b70af90fd698a233a518aa5d07e595d983b8c0526c8f7fb8686604051610c9d9291906114ed565b60405180910390a45050505050565b6001600160a01b0384163b1561076c5760405163bc197c8160e01b81526001600160a01b0385169063bc197c8190610cf0908990899088908890889060040161151a565b6020604051808303815f875af1925050508015610d2a575060408051601f3d908101601f19168201909252610d2791810190611577565b60015b610d91573d808015610d57576040519150601f19603f3d011682016040523d82523d5f602084013e610d5c565b606091505b5080515f03610d8957604051632bfa23e760e11b81526001600160a01b0386166004820152602401610415565b805160208201fd5b6001600160e01b0319811663bc197c8160e01b1461063a57604051632bfa23e760e11b81526001600160a01b0386166004820152602401610415565b6001600160a01b0384163b1561076c5760405163f23a6e6160e01b81526001600160a01b0385169063f23a6e6190610e119089908990889088908890600401611592565b6020604051808303815f875af1925050508015610e4b575060408051601f3d908101601f19168201909252610e4891810190611577565b60015b610e78573d808015610d57576040519150601f19603f3d011682016040523d82523d5f602084013e610d5c565b6001600160e01b0319811663f23a6e6160e01b1461063a57604051632bfa23e760e11b81526001600160a01b0386166004820152602401610415565b80356001600160a01b0381168114610eca575f80fd5b919050565b5f8060408385031215610ee0575f80fd5b610ee983610eb4565b946020939093013593505050565b6001600160e01b03198116811461070d575f80fd5b5f60208284031215610f1c575f80fd5b8135610f2781610ef7565b9392505050565b5f60208284031215610f3e575f80fd5b5035919050565b5f81518084528060208401602086015e5f602082860101526020601f19601f83011685010191505092915050565b602081525f610f276020830184610f45565b5f805f60608486031215610f97575f80fd5b610fa084610eb4565b95602085013595506040909401359392505050565b634e487b7160e01b5f52604160045260245ffd5b604051601f8201601f191681016001600160401b0381118282101715610ff157610ff1610fb5565b604052919050565b5f6001600160401b0382111561101157611011610fb5565b5060051b60200190565b5f82601f83011261102a575f80fd5b813561103d61103882610ff9565b610fc9565b8082825260208201915060208360051b86010192508583111561105e575f80fd5b602085015b8381101561107b578035835260209283019201611063565b5095945050505050565b5f82601f830112611094575f80fd5b81356001600160401b038111156110ad576110ad610fb5565b6110c0601f8201601f1916602001610fc9565b8181528460208386010111156110d4575f80fd5b816020850160208301375f918101602001919091529392505050565b5f805f805f60a08688031215611104575f80fd5b61110d86610eb4565b945061111b60208701610eb4565b935060408601356001600160401b03811115611135575f80fd5b6111418882890161101b565b93505060608601356001600160401b0381111561115c575f80fd5b6111688882890161101b565b92505060808601356001600160401b03811115611183575f80fd5b61118f88828901611085565b9150509295509295909350565b5f80604083850312156111ad575f80fd5b82356001600160401b038111156111c2575f80fd5b8301601f810185136111d2575f80fd5b80356111e061103882610ff9565b8082825260208201915060208360051b850101925087831115611201575f80fd5b6020840193505b8284101561122a5761121984610eb4565b825260209384019390910190611208565b945050505060208301356001600160401b03811115611247575f80fd5b6112538582860161101b565b9150509250929050565b5f8151808452602084019350602083015f5b8281101561128d57815186526020958601959091019060010161126f565b5093949350505050565b602081525f610f27602083018461125d565b5f80604083850312156112ba575f80fd5b6112c383610eb4565b9150602083013580151581146112d7575f80fd5b809150509250929050565b5f805f805f60a086880312156112f6575f80fd5b6112ff86610eb4565b97602087013597506040870135966060810135965060800135945092505050565b5f8083601f840112611330575f80fd5b5081356001600160401b03811115611346575f80fd5b6020830191508360208260051b8501011115611360575f80fd5b9250929050565b5f805f805f6060868803121561137b575f80fd5b61138486610eb4565b945060208601356001600160401b0381111561139e575f80fd5b6113aa88828901611320565b90955093505060408601356001600160401b038111156113c8575f80fd5b6113d488828901611320565b969995985093965092949392505050565b5f80604083850312156113f6575f80fd5b6113ff83610eb4565b915061140d60208401610eb4565b90509250929050565b5f805f805f60a0868803121561142a575f80fd5b61143386610eb4565b945061144160208701610eb4565b9350604086013592506060860135915060808601356001600160401b03811115611183575f80fd5b5f60208284031215611479575f80fd5b610f2782610eb4565b600181811c9082168061149657607f821691505b6020821081036114b457634e487b7160e01b5f52602260045260245ffd5b50919050565b634e487b7160e01b5f52603260045260245ffd5b808201808211156102c357634e487b7160e01b5f52601160045260245ffd5b604081525f6114ff604083018561125d565b8281036020840152611511818561125d565b95945050505050565b6001600160a01b0386811682528516602082015260a0604082018190525f906115459083018661125d565b8281036060840152611557818661125d565b9050828103608084015261156b8185610f45565b98975050505050505050565b5f60208284031215611587575f80fd5b8151610f2781610ef7565b6001600160a01b03868116825285166020820152604081018490526060810183905260a0608082018190525f906115cb90830184610f45565b97965050505050505056fea2646970667358221220ba1379406422d320605cee1db330810b6a28da639c71205125f8383915b430b464736f6c634300081a0033","linkReferences":{}},"methodIdentifiers":{"TOKEN_A()":"ff709ee8","TOKEN_B()":"499f712e","TOKEN_C()":"ffe37189","TOKEN_D()":"61e77893","balanceOf(address,uint256)":"00fdd58e","balanceOfBatch(address[],uint256[])":"4e1273f4","isApprovedForAll(address,address)":"e985e9c5","mint(address,uint256,uint256)":"156e29f6","mintAll(address,uint256,uint256,uint256,uint256)":"a85c05fa","mintBatch(address,uint256[],uint256[])":"d81d0a15","owner()":"8da5cb5b","renounceOwnership()":"715018a6","safeBatchTransferFrom(address,address,uint256[],uint256[],bytes)":"2eb2c2d6","safeTransferFrom(address,address,uint256,uint256,bytes)":"f242432a","setApprovalForAll(address,bool)":"a22cb465","supportsInterface(bytes4)":"01ffc9a7","transferOwnership(address)":"f2fde38b","uri(uint256)":"0e89341c"},"id":46}