{"abi":[{"type":"constructor","inputs":[],"stateMutability":"nonpayable"},{"type":"function","name":"DEFAULT_ADMIN_ROLE","inputs":[],"outputs":[{"name":"","type":"bytes32","internalType":"bytes32"}],"stateMutability":"view"},{"type":"function","name":"MINTER_ROLE","inputs":[],"outputs":[{"name":"","type":"bytes32","internalType":"bytes32"}],"stateMutability":"view"},{"type":"function","name":"approve","inputs":[{"name":"to","type":"address","internalType":"address"},{"name":"tokenId","type":"uint256","internalType":"uint256"}],"outputs":[],"stateMutability":"nonpayable"},{"type":"function","name":"balanceOf","inputs":[{"name":"owner","type":"address","internalType":"address"}],"outputs":[{"name":"","type":"uint256","internalType":"uint256"}],"stateMutability":"view"},{"type":"function","name":"getApproved","inputs":[{"name":"tokenId","type":"uint256","internalType":"uint256"}],"outputs":[{"name":"","type":"address","internalType":"address"}],"stateMutability":"view"},{"type":"function","name":"getRoleAdmin","inputs":[{"name":"role","type":"bytes32","internalType":"bytes32"}],"outputs":[{"name":"","type":"bytes32","internalType":"bytes32"}],"stateMutability":"view"},{"type":"function","name":"grantMinterRole","inputs":[{"name":"account","type":"address","internalType":"address"}],"outputs":[],"stateMutability":"nonpayable"},{"type":"function","name":"grantRole","inputs":[{"name":"role","type":"bytes32","internalType":"bytes32"},{"name":"account","type":"address","internalType":"address"}],"outputs":[],"stateMutability":"nonpayable"},{"type":"function","name":"hasRole","inputs":[{"name":"role","type":"bytes32","internalType":"bytes32"},{"name":"account","type":"address","internalType":"address"}],"outputs":[{"name":"","type":"bool","internalType":"bool"}],"stateMutability":"view"},{"type":"function","name":"isApprovedForAll","inputs":[{"name":"owner","type":"address","internalType":"address"},{"name":"operator","type":"address","internalType":"address"}],"outputs":[{"name":"","type":"bool","internalType":"bool"}],"stateMutability":"view"},{"type":"function","name":"mint","inputs":[{"name":"to","type":"address","internalType":"address"},{"name":"tokenId","type":"uint256","internalType":"uint256"}],"outputs":[],"stateMutability":"nonpayable"},{"type":"function","name":"name","inputs":[],"outputs":[{"name":"","type":"string","internalType":"string"}],"stateMutability":"view"},{"type":"function","name":"ownerOf","inputs":[{"name":"tokenId","type":"uint256","internalType":"uint256"}],"outputs":[{"name":"","type":"address","internalType":"address"}],"stateMutability":"view"},{"type":"function","name":"renounceRole","inputs":[{"name":"role","type":"bytes32","internalType":"bytes32"},{"name":"callerConfirmation","type":"address","internalType":"address"}],"outputs":[],"stateMutability":"nonpayable"},{"type":"function","name":"revokeMinterRole","inputs":[{"name":"account","type":"address","internalType":"address"}],"outputs":[],"stateMutability":"nonpayable"},{"type":"function","name":"revokeRole","inputs":[{"name":"role","type":"bytes32","internalType":"bytes32"},{"name":"account","type":"address","internalType":"address"}],"outputs":[],"stateMutability":"nonpayable"},{"type":"function","name":"safeTransferFrom","inputs":[{"name":"from","type":"address","internalType":"address"},{"name":"to","type":"address","internalType":"address"},{"name":"tokenId","type":"uint256","internalType":"uint256"}],"outputs":[],"stateMutability":"nonpayable"},{"type":"function","name":"safeTransferFrom","inputs":[{"name":"from","type":"address","internalType":"address"},{"name":"to","type":"address","internalType":"address"},{"name":"tokenId","type":"uint256","internalType":"uint256"},{"name":"data","type":"bytes","internalType":"bytes"}],"outputs":[],"stateMutability":"nonpayable"},{"type":"function","name":"setApprovalForAll","inputs":[{"name":"operator","type":"address","internalType":"address"},{"name":"approved","type":"bool","internalType":"bool"}],"outputs":[],"stateMutability":"nonpayable"},{"type":"function","name":"supportsInterface","inputs":[{"name":"interfaceId","type":"bytes4","internalType":"bytes4"}],"outputs":[{"name":"","type":"bool","internalType":"bool"}],"stateMutability":"view"},{"type":"function","name":"symbol","inputs":[],"outputs":[{"name":"","type":"string","internalType":"string"}],"stateMutability":"view"},{"type":"function","name":"tokenURI","inputs":[{"name":"tokenId","type":"uint256","internalType":"uint256"}],"outputs":[{"name":"","type":"string","internalType":"string"}],"stateMutability":"view"},{"type":"function","name":"transferFrom","inputs":[{"name":"from","type":"address","internalType":"address"},{"name":"to","type":"address","internalType":"address"},{"name":"tokenId","type":"uint256","internalType":"uint256"}],"outputs":[],"stateMutability":"nonpayable"},{"type":"event","name":"Approval","inputs":[{"name":"owner","type":"address","indexed":true,"internalType":"address"},{"name":"approved","type":"address","indexed":true,"internalType":"address"},{"name":"tokenId","type":"uint256","indexed":true,"internalType":"uint256"}],"anonymous":false},{"type":"event","name":"ApprovalForAll","inputs":[{"name":"owner","type":"address","indexed":true,"internalType":"address"},{"name":"operator","type":"address","indexed":true,"internalType":"address"},{"name":"approved","type":"bool","indexed":false,"internalType":"bool"}],"anonymous":false},{"type":"event","name":"RoleAdminChanged","inputs":[{"name":"role","type":"bytes32","indexed":true,"internalType":"bytes32"},{"name":"previousAdminRole","type":"bytes32","indexed":true,"internalType":"bytes32"},{"name":"newAdminRole","type":"bytes32","indexed":true,"internalType":"bytes32"}],"anonymous":false},{"type":"event","name":"RoleGranted","inputs":[{"name":"role","type":"bytes32","indexed":true,"internalType":"bytes32"},{"name":"account","type":"address","indexed":true,"internalType":"address"},{"name":"sender","type":"address","indexed":true,"internalType":"address"}],"anonymous":false},{"type":"event","name":"RoleRevoked","inputs":[{"name":"role","type":"bytes32","indexed":true,"internalType":"bytes32"},{"name":"account","type":"address","indexed":true,"internalType":"address"},{"name":"sender","type":"address","indexed":true,"internalType":"address"}],"anonymous":false},{"type":"event","name":"Transfer","inputs":[{"name":"from","type":"address","indexed":true,"internalType":"address"},{"name":"to","type":"address","indexed":true,"internalType":"address"},{"name":"tokenId","type":"uint256","indexed":true,"internalType":"uint256"}],"anonymous":false},{"type":"error","name":"AccessControlBadConfirmation","inputs":[]},{"type":"error","name":"AccessControlUnauthorizedAccount","inputs":[{"name":"account","type":"address","internalType":"address"},{"name":"neededRole","type":"bytes32","internalType":"bytes32"}]},{"type":"error","name":"ERC721IncorrectOwner","inputs":[{"name":"sender","type":"address","internalType":"address"},{"name":"tokenId","type":"uint256","internalType":"uint256"},{"name":"owner","type":"address","internalType":"address"}]},{"type":"error","name":"ERC721InsufficientApproval","inputs":[{"name":"operator","type":"address","internalType":"address"},{"name":"tokenId","type":"uint256","internalType":"uint256"}]},{"type":"error","name":"ERC721InvalidApprover","inputs":[{"name":"approver","type":"address","internalType":"address"}]},{"type":"error","name":"ERC721InvalidOperator","inputs":[{"name":"operator","type":"address","internalType":"address"}]},{"type":"error","name":"ERC721InvalidOwner","inputs":[{"name":"owner","type":"address","internalType":"address"}]},{"type":"error","name":"ERC721InvalidReceiver","inputs":[{"name":"receiver","type":"address","internalType":"address"}]},{"type":"error","name":"ERC721InvalidSender","inputs":[{"name":"sender","type":"address","internalType":"address"}]},{"type":"error","name":"ERC721NonexistentToken","inputs":[{"name":"tokenId","type":"uint256","internalType":"uint256"}]}],"bytecode":{"object":"0x608060405234801561000f575f80fd5b506040518060400160405280600b81526020016a135a5b9d18589b1953919560aa1b815250604051806040016040528060048152602001631353919560e21b815250815f908161005f91906101f1565b50600161006c82826101f1565b5061007b91505f9050336100ac565b506100a67f9f2df0fed2c77648de5860a4cc508cd0818c85b8b8a1ab4ceeef8d981c8956a6336100ac565b506102ab565b5f8281526006602090815260408083206001600160a01b038516845290915281205460ff16610150575f8381526006602090815260408083206001600160a01b03861684529091529020805460ff191660011790556101083390565b6001600160a01b0316826001600160a01b0316847f2f8788117e7eff1d82e926ec794901d17c78024a50270940304540a733656f0d60405160405180910390a4506001610153565b505f5b92915050565b634e487b7160e01b5f52604160045260245ffd5b600181811c9082168061018157607f821691505b60208210810361019f57634e487b7160e01b5f52602260045260245ffd5b50919050565b601f8211156101ec57805f5260205f20601f840160051c810160208510156101ca5750805b601f840160051c820191505b818110156101e9575f81556001016101d6565b50505b505050565b81516001600160401b0381111561020a5761020a610159565b61021e81610218845461016d565b846101a5565b6020601f821160018114610250575f83156102395750848201515b5f19600385901b1c1916600184901b1784556101e9565b5f84815260208120601f198516915b8281101561027f578785015182556020948501946001909201910161025f565b508482101561029c57868401515f19600387901b60f8161c191681555b50505050600190811b01905550565b6112fa806102b85f395ff3fe608060405234801561000f575f80fd5b5060043610610148575f3560e01c80636352211e116100bf578063a22cb46511610079578063a22cb465146102c6578063b88d4fde146102d9578063c87b56dd146102ec578063d5391393146102ff578063d547741f14610313578063e985e9c514610326575f80fd5b80636352211e1461026b57806369e2f0fb1461027e57806370a082311461029157806391d14854146102a457806395d89b41146102b7578063a217fddf146102bf575f80fd5b8063248a9ca311610110578063248a9ca3146101dc5780632f2ff15d1461020c57806336568abe1461021f5780633dd1eb611461023257806340c10f191461024557806342842e0e14610258575f80fd5b806301ffc9a71461014c57806306fdde0314610174578063081812fc14610189578063095ea7b3146101b457806323b872dd146101c9575b5f80fd5b61015f61015a366004610f66565b610339565b60405190151581526020015b60405180910390f35b61017c610349565b60405161016b9190610faf565b61019c610197366004610fc1565b6103d8565b6040516001600160a01b03909116815260200161016b565b6101c76101c2366004610ff3565b6103ff565b005b6101c76101d736600461101b565b61040e565b6101fe6101ea366004610fc1565b5f9081526006602052604090206001015490565b60405190815260200161016b565b6101c761021a366004611055565b61049c565b6101c761022d366004611055565b6104c0565b6101c761024036600461107f565b6104f8565b6101c7610253366004610ff3565b610519565b6101c761026636600461101b565b61053a565b61019c610279366004610fc1565b610554565b6101c761028c36600461107f565b61055e565b6101fe61029f36600461107f565b61057f565b61015f6102b2366004611055565b6105c4565b61017c6105ee565b6101fe5f81565b6101c76102d4366004611098565b6105fd565b6101c76102e73660046110e5565b610608565b61017c6102fa366004610fc1565b610620565b6101fe5f805160206112a583398151915281565b6101c7610321366004611055565b610691565b61015f6103343660046111c2565b6106b5565b5f610343826106e2565b92915050565b60605f8054610357906111ea565b80601f0160208091040260200160405190810160405280929190818152602001828054610383906111ea565b80156103ce5780601f106103a5576101008083540402835291602001916103ce565b820191905f5260205f20905b8154815290600101906020018083116103b157829003601f168201915b5050505050905090565b5f6103e282610706565b505f828152600460205260409020546001600160a01b0316610343565b61040a82823361073e565b5050565b6001600160a01b03821661043c57604051633250574960e11b81525f60048201526024015b60405180910390fd5b5f61044883833361074b565b9050836001600160a01b0316816001600160a01b031614610496576040516364283d7b60e01b81526001600160a01b0380861660048301526024820184905282166044820152606401610433565b50505050565b5f828152600660205260409020600101546104b68161083d565b610496838361084a565b6001600160a01b03811633146104e95760405163334bd91960e11b815260040160405180910390fd5b6104f382826108db565b505050565b5f6105028161083d565b6104f35f805160206112a58339815191528361084a565b5f805160206112a58339815191526105308161083d565b6104f38383610946565b6104f383838360405180602001604052805f815250610608565b5f61034382610706565b5f6105688161083d565b6104f35f805160206112a5833981519152836108db565b5f6001600160a01b0382166105a9576040516322718ad960e21b81525f6004820152602401610433565b506001600160a01b03165f9081526003602052604090205490565b5f9182526006602090815260408084206001600160a01b0393909316845291905290205460ff1690565b606060018054610357906111ea565b61040a3383836109a7565b61061384848461040e565b6104963385858585610a6e565b606061062b82610706565b505f61064160408051602081019091525f815290565b90505f81511161065f5760405180602001604052805f81525061068a565b8061066984610b96565b60405160200161067a929190611239565b6040516020818303038152906040525b9392505050565b5f828152600660205260409020600101546106ab8161083d565b61049683836108db565b6001600160a01b039182165f90815260056020908152604080832093909416825291909152205460ff1690565b5f6001600160e01b03198216637965db0b60e01b1480610343575061034382610c26565b5f818152600260205260408120546001600160a01b03168061034357604051637e27328960e01b815260048101849052602401610433565b6104f38383836001610c75565b5f828152600260205260408120546001600160a01b039081169083161561077757610777818486610d79565b6001600160a01b038116156107b1576107925f855f80610c75565b6001600160a01b0381165f90815260036020526040902080545f190190555b6001600160a01b038516156107df576001600160a01b0385165f908152600360205260409020805460010190555b5f8481526002602052604080822080546001600160a01b0319166001600160a01b0389811691821790925591518793918516917fddf252ad1be2c89b69c2b068fc378daa952ba7f163c4a11628f55a4df523b3ef91a4949350505050565b6108478133610ddd565b50565b5f61085583836105c4565b6108d4575f8381526006602090815260408083206001600160a01b03861684529091529020805460ff1916600117905561088c3390565b6001600160a01b0316826001600160a01b0316847f2f8788117e7eff1d82e926ec794901d17c78024a50270940304540a733656f0d60405160405180910390a4506001610343565b505f610343565b5f6108e683836105c4565b156108d4575f8381526006602090815260408083206001600160a01b0386168085529252808320805460ff1916905551339286917ff6391f5c32d9c69d2a47ea670b442974b53935d1edc7fd64eb21e047a839171b9190a4506001610343565b6001600160a01b03821661096f57604051633250574960e11b81525f6004820152602401610433565b5f61097b83835f61074b565b90506001600160a01b038116156104f3576040516339e3563760e11b81525f6004820152602401610433565b6001600160a01b0383166109d05760405163a9fbf51f60e01b81525f6004820152602401610433565b6001600160a01b038216610a0257604051630b61174360e31b81526001600160a01b0383166004820152602401610433565b6001600160a01b038381165f81815260056020908152604080832094871680845294825291829020805460ff191686151590811790915591519182527f17307eab39ab6107e8899845ad3d59bd9653f200f220920489ca2b5937696c31910160405180910390a3505050565b6001600160a01b0383163b15610b8f57604051630a85bd0160e11b81526001600160a01b0384169063150b7a0290610ab090889088908790879060040161124d565b6020604051808303815f875af1925050508015610aea575060408051601f3d908101601f19168201909252610ae791810190611289565b60015b610b51573d808015610b17576040519150601f19603f3d011682016040523d82523d5f602084013e610b1c565b606091505b5080515f03610b4957604051633250574960e11b81526001600160a01b0385166004820152602401610433565b805160208201fd5b6001600160e01b03198116630a85bd0160e11b14610b8d57604051633250574960e11b81526001600160a01b0385166004820152602401610433565b505b5050505050565b60605f610ba283610e16565b60010190505f8167ffffffffffffffff811115610bc157610bc16110d1565b6040519080825280601f01601f191660200182016040528015610beb576020820181803683370190505b5090508181016020015b5f19016f181899199a1a9b1b9c1cb0b131b232b360811b600a86061a8153600a8504945084610bf557509392505050565b5f6001600160e01b031982166380ac58cd60e01b1480610c5657506001600160e01b03198216635b5e139f60e01b145b8061034357506301ffc9a760e01b6001600160e01b0319831614610343565b8080610c8957506001600160a01b03821615155b15610d4a575f610c9884610706565b90506001600160a01b03831615801590610cc45750826001600160a01b0316816001600160a01b031614155b8015610cd75750610cd581846106b5565b155b15610d005760405163a9fbf51f60e01b81526001600160a01b0384166004820152602401610433565b8115610d485783856001600160a01b0316826001600160a01b03167f8c5be1e5ebec7d5bd14f71427d1e84f3dd0314c0f7b2291e5b200ac8c7c3b92560405160405180910390a45b505b50505f90815260046020526040902080546001600160a01b0319166001600160a01b0392909216919091179055565b610d84838383610eed565b6104f3576001600160a01b038316610db257604051637e27328960e01b815260048101829052602401610433565b60405163177e802f60e01b81526001600160a01b038316600482015260248101829052604401610433565b610de782826105c4565b61040a5760405163e2517d3f60e01b81526001600160a01b038216600482015260248101839052604401610433565b5f8072184f03e93ff9f4daa797ed6e38ed64bf6a1f0160401b8310610e545772184f03e93ff9f4daa797ed6e38ed64bf6a1f0160401b830492506040015b6d04ee2d6d415b85acef81000000008310610e80576d04ee2d6d415b85acef8100000000830492506020015b662386f26fc100008310610e9e57662386f26fc10000830492506010015b6305f5e1008310610eb6576305f5e100830492506008015b6127108310610eca57612710830492506004015b60648310610edc576064830492506002015b600a83106103435760010192915050565b5f6001600160a01b03831615801590610f495750826001600160a01b0316846001600160a01b03161480610f265750610f2684846106b5565b80610f4957505f828152600460205260409020546001600160a01b038481169116145b949350505050565b6001600160e01b031981168114610847575f80fd5b5f60208284031215610f76575f80fd5b813561068a81610f51565b5f81518084528060208401602086015e5f602082860101526020601f19601f83011685010191505092915050565b602081525f61068a6020830184610f81565b5f60208284031215610fd1575f80fd5b5035919050565b80356001600160a01b0381168114610fee575f80fd5b919050565b5f8060408385031215611004575f80fd5b61100d83610fd8565b946020939093013593505050565b5f805f6060848603121561102d575f80fd5b61103684610fd8565b925061104460208501610fd8565b929592945050506040919091013590565b5f8060408385031215611066575f80fd5b8235915061107660208401610fd8565b90509250929050565b5f6020828403121561108f575f80fd5b61068a82610fd8565b5f80604083850312156110a9575f80fd5b6110b283610fd8565b9150602083013580151581146110c6575f80fd5b809150509250929050565b634e487b7160e01b5f52604160045260245ffd5b5f805f80608085870312156110f8575f80fd5b61110185610fd8565b935061110f60208601610fd8565b925060408501359150606085013567ffffffffffffffff811115611131575f80fd5b8501601f81018713611141575f80fd5b803567ffffffffffffffff81111561115b5761115b6110d1565b604051601f8201601f19908116603f0116810167ffffffffffffffff8111828210171561118a5761118a6110d1565b6040528181528282016020018910156111a1575f80fd5b816020840160208301375f6020838301015280935050505092959194509250565b5f80604083850312156111d3575f80fd5b6111dc83610fd8565b915061107660208401610fd8565b600181811c908216806111fe57607f821691505b60208210810361121c57634e487b7160e01b5f52602260045260245ffd5b50919050565b5f81518060208401855e5f93019283525090919050565b5f610f496112478386611222565b84611222565b6001600160a01b03858116825284166020820152604081018390526080606082018190525f9061127f90830184610f81565b9695505050505050565b5f60208284031215611299575f80fd5b815161068a81610f5156fe9f2df0fed2c77648de5860a4cc508cd0818c85b8b8a1ab4ceeef8d981c8956a6a2646970667358221220e4b484ef7b90026b3563f998ae3d792f1982a30e9f22649d8d6f4884e2150e4e64736f6c634300081a0033","linkReferences":{}},"methodIdentifiers":{"DEFAULT_ADMIN_ROLE()":"a217fddf","MINTER_ROLE()":"d5391393","approve(address,uint256)":"095ea7b3","balanceOf(address)":"70a08231","getApproved(uint256)":"081812fc","getRoleAdmin(bytes32)":"248a9ca3","grantMinterRole(address)":"3dd1eb61","grantRole(bytes32,address)":"2f2ff15d","hasRole(bytes32,address)":"91d14854","isApprovedForAll(address,address)":"e985e9c5","mint(address,uint256)":"40c10f19","name()":"06fdde03","ownerOf(uint256)":"6352211e","renounceRole(bytes32,address)":"36568abe","revokeMinterRole(address)":"69e2f0fb","revokeRole(bytes32,address)":"d547741f","safeTransferFrom(address,address,uint256)":"42842e0e","safeTransferFrom(address,address,uint256,bytes)":"b88d4fde","setApprovalForAll(address,bool)":"a22cb465","supportsInterface(bytes4)":"01ffc9a7","symbol()":"95d89b41","tokenURI(uint256)":"c87b56dd","transferFrom(address,address,uint256)":"23b872dd"},"id":45}