{"abi":[{"type":"constructor","inputs":[],"stateMutability":"nonpayable"},{"type":"function","name":"approve","inputs":[{"name":"to","type":"address","internalType":"address"},{"name":"tokenId","type":"uint256","internalType":"uint256"}],"outputs":[],"stateMutability":"nonpayable"},{"type":"function","name":"balanceOf","inputs":[{"name":"owner","type":"address","internalType":"address"}],"outputs":[{"name":"","type":"uint256","internalType":"uint256"}],"stateMutability":"view"},{"type":"function","name":"batchMint","inputs":[{"name":"to","type":"address","internalType":"address"},{"name":"tokenIds","type":"uint256[]","internalType":"uint256[]"}],"outputs":[],"stateMutability":"nonpayable"},{"type":"function","name":"getApproved","inputs":[{"name":"tokenId","type":"uint256","internalType":"uint256"}],"outputs":[{"name":"","type":"address","internalType":"address"}],"stateMutability":"view"},{"type":"function","name":"isApprovedForAll","inputs":[{"name":"owner","type":"address","internalType":"address"},{"name":"operator","type":"address","internalType":"address"}],"outputs":[{"name":"","type":"bool","internalType":"bool"}],"stateMutability":"view"},{"type":"function","name":"mint","inputs":[{"name":"to","type":"address","internalType":"address"},{"name":"tokenId","type":"uint256","internalType":"uint256"}],"outputs":[],"stateMutability":"nonpayable"},{"type":"function","name":"name","inputs":[],"outputs":[{"name":"","type":"string","internalType":"string"}],"stateMutability":"view"},{"type":"function","name":"owner","inputs":[],"outputs":[{"name":"","type":"address","internalType":"address"}],"stateMutability":"view"},{"type":"function","name":"ownerOf","inputs":[{"name":"tokenId","type":"uint256","internalType":"uint256"}],"outputs":[{"name":"","type":"address","internalType":"address"}],"stateMutability":"view"},{"type":"function","name":"renounceOwnership","inputs":[],"outputs":[],"stateMutability":"nonpayable"},{"type":"function","name":"safeTransferFrom","inputs":[{"name":"from","type":"address","internalType":"address"},{"name":"to","type":"address","internalType":"address"},{"name":"tokenId","type":"uint256","internalType":"uint256"}],"outputs":[],"stateMutability":"nonpayable"},{"type":"function","name":"safeTransferFrom","inputs":[{"name":"from","type":"address","internalType":"address"},{"name":"to","type":"address","internalType":"address"},{"name":"tokenId","type":"uint256","internalType":"uint256"},{"name":"data","type":"bytes","internalType":"bytes"}],"outputs":[],"stateMutability":"nonpayable"},{"type":"function","name":"setApprovalForAll","inputs":[{"name":"operator","type":"address","internalType":"address"},{"name":"approved","type":"bool","internalType":"bool"}],"outputs":[],"stateMutability":"nonpayable"},{"type":"function","name":"supportsInterface","inputs":[{"name":"interfaceId","type":"bytes4","internalType":"bytes4"}],"outputs":[{"name":"","type":"bool","internalType":"bool"}],"stateMutability":"view"},{"type":"function","name":"symbol","inputs":[],"outputs":[{"name":"","type":"string","internalType":"string"}],"stateMutability":"view"},{"type":"function","name":"tokenURI","inputs":[{"name":"tokenId","type":"uint256","internalType":"uint256"}],"outputs":[{"name":"","type":"string","internalType":"string"}],"stateMutability":"view"},{"type":"function","name":"transferFrom","inputs":[{"name":"from","type":"address","internalType":"address"},{"name":"to","type":"address","internalType":"address"},{"name":"tokenId","type":"uint256","internalType":"uint256"}],"outputs":[],"stateMutability":"nonpayable"},{"type":"function","name":"transferOwnership","inputs":[{"name":"newOwner","type":"address","internalType":"address"}],"outputs":[],"stateMutability":"nonpayable"},{"type":"event","name":"Approval","inputs":[{"name":"owner","type":"address","indexed":true,"internalType":"address"},{"name":"approved","type":"address","indexed":true,"internalType":"address"},{"name":"tokenId","type":"uint256","indexed":true,"internalType":"uint256"}],"anonymous":false},{"type":"event","name":"ApprovalForAll","inputs":[{"name":"owner","type":"address","indexed":true,"internalType":"address"},{"name":"operator","type":"address","indexed":true,"internalType":"address"},{"name":"approved","type":"bool","indexed":false,"internalType":"bool"}],"anonymous":false},{"type":"event","name":"OwnershipTransferred","inputs":[{"name":"previousOwner","type":"address","indexed":true,"internalType":"address"},{"name":"newOwner","type":"address","indexed":true,"internalType":"address"}],"anonymous":false},{"type":"event","name":"Transfer","inputs":[{"name":"from","type":"address","indexed":true,"internalType":"address"},{"name":"to","type":"address","indexed":true,"internalType":"address"},{"name":"tokenId","type":"uint256","indexed":true,"internalType":"uint256"}],"anonymous":false},{"type":"error","name":"ERC721IncorrectOwner","inputs":[{"name":"sender","type":"address","internalType":"address"},{"name":"tokenId","type":"uint256","internalType":"uint256"},{"name":"owner","type":"address","internalType":"address"}]},{"type":"error","name":"ERC721InsufficientApproval","inputs":[{"name":"operator","type":"address","internalType":"address"},{"name":"tokenId","type":"uint256","internalType":"uint256"}]},{"type":"error","name":"ERC721InvalidApprover","inputs":[{"name":"approver","type":"address","internalType":"address"}]},{"type":"error","name":"ERC721InvalidOperator","inputs":[{"name":"operator","type":"address","internalType":"address"}]},{"type":"error","name":"ERC721InvalidOwner","inputs":[{"name":"owner","type":"address","internalType":"address"}]},{"type":"error","name":"ERC721InvalidReceiver","inputs":[{"name":"receiver","type":"address","internalType":"address"}]},{"type":"error","name":"ERC721InvalidSender","inputs":[{"name":"sender","type":"address","internalType":"address"}]},{"type":"error","name":"ERC721NonexistentToken","inputs":[{"name":"tokenId","type":"uint256","internalType":"uint256"}]},{"type":"error","name":"OwnableInvalidOwner","inputs":[{"name":"owner","type":"address","internalType":"address"}]},{"type":"error","name":"OwnableUnauthorizedAccount","inputs":[{"name":"account","type":"address","internalType":"address"}]}],"bytecode":{"object":"0x608060405234801561000f575f80fd5b50336040518060400160405280600781526020016615195cdd13919560ca1b815250604051806040016040528060048152602001631513919560e21b815250815f908161005c9190610191565b5060016100698282610191565b5050506001600160a01b03811661009957604051631e4fbdf760e01b81525f600482015260240160405180910390fd5b6100a2816100a8565b5061024b565b600680546001600160a01b038381166001600160a01b0319831681179093556040519116919082907f8be0079c531659141344cd1fd0a4f28419497f9722a3daafe3b4186f6b6457e0905f90a35050565b634e487b7160e01b5f52604160045260245ffd5b600181811c9082168061012157607f821691505b60208210810361013f57634e487b7160e01b5f52602260045260245ffd5b50919050565b601f82111561018c57805f5260205f20601f840160051c8101602085101561016a5750805b601f840160051c820191505b81811015610189575f8155600101610176565b50505b505050565b81516001600160401b038111156101aa576101aa6100f9565b6101be816101b8845461010d565b84610145565b6020601f8211600181146101f0575f83156101d95750848201515b5f19600385901b1c1916600184901b178455610189565b5f84815260208120601f198516915b8281101561021f57878501518255602094850194600190920191016101ff565b508482101561023c57868401515f19600387901b60f8161c191681555b50505050600190811b01905550565b611137806102585f395ff3fe608060405234801561000f575f80fd5b5060043610610111575f3560e01c806370a082311161009e578063a22cb4651161006e578063a22cb46514610233578063b88d4fde14610246578063c87b56dd14610259578063e985e9c51461026c578063f2fde38b1461027f575f80fd5b806370a08231146101f1578063715018a6146102125780638da5cb5b1461021a57806395d89b411461022b575f80fd5b806323b872dd116100e457806323b872dd1461019257806340c10f19146101a557806342842e0e146101b85780634684d7e9146101cb5780636352211e146101de575f80fd5b806301ffc9a71461011557806306fdde031461013d578063081812fc14610152578063095ea7b31461017d575b5f80fd5b610128610123366004610d4f565b610292565b60405190151581526020015b60405180910390f35b6101456102e3565b6040516101349190610d98565b610165610160366004610daa565b610372565b6040516001600160a01b039091168152602001610134565b61019061018b366004610ddc565b610399565b005b6101906101a0366004610e04565b6103a8565b6101906101b3366004610ddc565b610436565b6101906101c6366004610e04565b610440565b6101906101d9366004610e3e565b61045f565b6101656101ec366004610daa565b610493565b6102046101ff366004610ebf565b61049d565b604051908152602001610134565b6101906104e2565b6006546001600160a01b0316610165565b6101456104f5565b610190610241366004610ed8565b610504565b610190610254366004610f25565b61050f565b610145610267366004610daa565b610527565b61012861027a366004611002565b610598565b61019061028d366004610ebf565b6105c5565b5f6001600160e01b031982166380ac58cd60e01b14806102c257506001600160e01b03198216635b5e139f60e01b145b806102dd57506301ffc9a760e01b6001600160e01b03198316145b92915050565b60605f80546102f190611033565b80601f016020809104026020016040519081016040528092919081815260200182805461031d90611033565b80156103685780601f1061033f57610100808354040283529160200191610368565b820191905f5260205f20905b81548152906001019060200180831161034b57829003601f168201915b5050505050905090565b5f61037c82610602565b505f828152600460205260409020546001600160a01b03166102dd565b6103a482823361063a565b5050565b6001600160a01b0382166103d657604051633250574960e11b81525f60048201526024015b60405180910390fd5b5f6103e2838333610647565b9050836001600160a01b0316816001600160a01b031614610430576040516364283d7b60e01b81526001600160a01b03808616600483015260248201849052821660448201526064016103cd565b50505050565b6103a48282610739565b61045a83838360405180602001604052805f81525061050f565b505050565b5f5b818110156104305761048b8484848481811061047f5761047f61106b565b90506020020135610739565b600101610461565b5f6102dd82610602565b5f6001600160a01b0382166104c7576040516322718ad960e21b81525f60048201526024016103cd565b506001600160a01b03165f9081526003602052604090205490565b6104ea61079a565b6104f35f6107c7565b565b6060600180546102f190611033565b6103a4338383610818565b61051a8484846103a8565b61043033858585856108df565b606061053282610602565b505f61054860408051602081019091525f815290565b90505f8151116105665760405180602001604052805f815250610591565b8061057084610a07565b604051602001610581929190611096565b6040516020818303038152906040525b9392505050565b6001600160a01b039182165f90815260056020908152604080832093909416825291909152205460ff1690565b6105cd61079a565b6001600160a01b0381166105f657604051631e4fbdf760e01b81525f60048201526024016103cd565b6105ff816107c7565b50565b5f818152600260205260408120546001600160a01b0316806102dd57604051637e27328960e01b8152600481018490526024016103cd565b61045a8383836001610a97565b5f828152600260205260408120546001600160a01b039081169083161561067357610673818486610b9b565b6001600160a01b038116156106ad5761068e5f855f80610a97565b6001600160a01b0381165f90815260036020526040902080545f190190555b6001600160a01b038516156106db576001600160a01b0385165f908152600360205260409020805460010190555b5f8481526002602052604080822080546001600160a01b0319166001600160a01b0389811691821790925591518793918516917fddf252ad1be2c89b69c2b068fc378daa952ba7f163c4a11628f55a4df523b3ef91a4949350505050565b6001600160a01b03821661076257604051633250574960e11b81525f60048201526024016103cd565b5f61076e83835f610647565b90506001600160a01b0381161561045a576040516339e3563760e11b81525f60048201526024016103cd565b6006546001600160a01b031633146104f35760405163118cdaa760e01b81523360048201526024016103cd565b600680546001600160a01b038381166001600160a01b0319831681179093556040519116919082907f8be0079c531659141344cd1fd0a4f28419497f9722a3daafe3b4186f6b6457e0905f90a35050565b6001600160a01b0383166108415760405163a9fbf51f60e01b81525f60048201526024016103cd565b6001600160a01b03821661087357604051630b61174360e31b81526001600160a01b03831660048201526024016103cd565b6001600160a01b038381165f81815260056020908152604080832094871680845294825291829020805460ff191686151590811790915591519182527f17307eab39ab6107e8899845ad3d59bd9653f200f220920489ca2b5937696c31910160405180910390a3505050565b6001600160a01b0383163b15610a0057604051630a85bd0160e11b81526001600160a01b0384169063150b7a02906109219088908890879087906004016110aa565b6020604051808303815f875af192505050801561095b575060408051601f3d908101601f19168201909252610958918101906110e6565b60015b6109c2573d808015610988576040519150601f19603f3d011682016040523d82523d5f602084013e61098d565b606091505b5080515f036109ba57604051633250574960e11b81526001600160a01b03851660048201526024016103cd565b805160208201fd5b6001600160e01b03198116630a85bd0160e11b146109fe57604051633250574960e11b81526001600160a01b03851660048201526024016103cd565b505b5050505050565b60605f610a1383610bff565b60010190505f8167ffffffffffffffff811115610a3257610a32610f11565b6040519080825280601f01601f191660200182016040528015610a5c576020820181803683370190505b5090508181016020015b5f19016f181899199a1a9b1b9c1cb0b131b232b360811b600a86061a8153600a8504945084610a6657509392505050565b8080610aab57506001600160a01b03821615155b15610b6c575f610aba84610602565b90506001600160a01b03831615801590610ae65750826001600160a01b0316816001600160a01b031614155b8015610af95750610af78184610598565b155b15610b225760405163a9fbf51f60e01b81526001600160a01b03841660048201526024016103cd565b8115610b6a5783856001600160a01b0316826001600160a01b03167f8c5be1e5ebec7d5bd14f71427d1e84f3dd0314c0f7b2291e5b200ac8c7c3b92560405160405180910390a45b505b50505f90815260046020526040902080546001600160a01b0319166001600160a01b0392909216919091179055565b610ba6838383610cd6565b61045a576001600160a01b038316610bd457604051637e27328960e01b8152600481018290526024016103cd565b60405163177e802f60e01b81526001600160a01b0383166004820152602481018290526044016103cd565b5f8072184f03e93ff9f4daa797ed6e38ed64bf6a1f0160401b8310610c3d5772184f03e93ff9f4daa797ed6e38ed64bf6a1f0160401b830492506040015b6d04ee2d6d415b85acef81000000008310610c69576d04ee2d6d415b85acef8100000000830492506020015b662386f26fc100008310610c8757662386f26fc10000830492506010015b6305f5e1008310610c9f576305f5e100830492506008015b6127108310610cb357612710830492506004015b60648310610cc5576064830492506002015b600a83106102dd5760010192915050565b5f6001600160a01b03831615801590610d325750826001600160a01b0316846001600160a01b03161480610d0f5750610d0f8484610598565b80610d3257505f828152600460205260409020546001600160a01b038481169116145b949350505050565b6001600160e01b0319811681146105ff575f80fd5b5f60208284031215610d5f575f80fd5b813561059181610d3a565b5f81518084528060208401602086015e5f602082860101526020601f19601f83011685010191505092915050565b602081525f6105916020830184610d6a565b5f60208284031215610dba575f80fd5b5035919050565b80356001600160a01b0381168114610dd7575f80fd5b919050565b5f8060408385031215610ded575f80fd5b610df683610dc1565b946020939093013593505050565b5f805f60608486031215610e16575f80fd5b610e1f84610dc1565b9250610e2d60208501610dc1565b929592945050506040919091013590565b5f805f60408486031215610e50575f80fd5b610e5984610dc1565b9250602084013567ffffffffffffffff811115610e74575f80fd5b8401601f81018613610e84575f80fd5b803567ffffffffffffffff811115610e9a575f80fd5b8660208260051b8401011115610eae575f80fd5b939660209190910195509293505050565b5f60208284031215610ecf575f80fd5b61059182610dc1565b5f8060408385031215610ee9575f80fd5b610ef283610dc1565b915060208301358015158114610f06575f80fd5b809150509250929050565b634e487b7160e01b5f52604160045260245ffd5b5f805f8060808587031215610f38575f80fd5b610f4185610dc1565b9350610f4f60208601610dc1565b925060408501359150606085013567ffffffffffffffff811115610f71575f80fd5b8501601f81018713610f81575f80fd5b803567ffffffffffffffff811115610f9b57610f9b610f11565b604051601f8201601f19908116603f0116810167ffffffffffffffff81118282101715610fca57610fca610f11565b604052818152828201602001891015610fe1575f80fd5b816020840160208301375f6020838301015280935050505092959194509250565b5f8060408385031215611013575f80fd5b61101c83610dc1565b915061102a60208401610dc1565b90509250929050565b600181811c9082168061104757607f821691505b60208210810361106557634e487b7160e01b5f52602260045260245ffd5b50919050565b634e487b7160e01b5f52603260045260245ffd5b5f81518060208401855e5f93019283525090919050565b5f610d326110a4838661107f565b8461107f565b6001600160a01b03858116825284166020820152604081018390526080606082018190525f906110dc90830184610d6a565b9695505050505050565b5f602082840312156110f6575f80fd5b815161059181610d3a56fea2646970667358221220c6ddee6426db54f3106cb1fe8d342062598d941e0eea08765065a740985b3e3f64736f6c634300081a0033","linkReferences":{}},"methodIdentifiers":{"approve(address,uint256)":"095ea7b3","balanceOf(address)":"70a08231","batchMint(address,uint256[])":"4684d7e9","getApproved(uint256)":"081812fc","isApprovedForAll(address,address)":"e985e9c5","mint(address,uint256)":"40c10f19","name()":"06fdde03","owner()":"8da5cb5b","ownerOf(uint256)":"6352211e","renounceOwnership()":"715018a6","safeTransferFrom(address,address,uint256)":"42842e0e","safeTransferFrom(address,address,uint256,bytes)":"b88d4fde","setApprovalForAll(address,bool)":"a22cb465","supportsInterface(bytes4)":"01ffc9a7","symbol()":"95d89b41","tokenURI(uint256)":"c87b56dd","transferFrom(address,address,uint256)":"23b872dd","transferOwnership(address)":"f2fde38b"},"id":47}